{
  "contractName": "Prediction",
  "abi": [
    {
      "inputs": [
        {
          "internalType": "address",
          "name": "_oracle",
          "type": "address"
        }
      ],
      "stateMutability": "nonpayable",
      "type": "constructor"
    },
    {
      "inputs": [
        {
          "internalType": "enum Prediction.Side",
          "name": "",
          "type": "uint8"
        }
      ],
      "name": "bets",
      "outputs": [
        {
          "internalType": "uint256",
          "name": "",
          "type": "uint256"
        }
      ],
      "stateMutability": "view",
      "type": "function"
    },
    {
      "inputs": [
        {
          "internalType": "address",
          "name": "",
          "type": "address"
        },
        {
          "internalType": "enum Prediction.Side",
          "name": "",
          "type": "uint8"
        }
      ],
      "name": "betsPerGambler",
      "outputs": [
        {
          "internalType": "uint256",
          "name": "",
          "type": "uint256"
        }
      ],
      "stateMutability": "view",
      "type": "function"
    },
    {
      "inputs": [],
      "name": "electionFinished",
      "outputs": [
        {
          "internalType": "bool",
          "name": "",
          "type": "bool"
        }
      ],
      "stateMutability": "view",
      "type": "function"
    },
    {
      "inputs": [],
      "name": "oracle",
      "outputs": [
        {
          "internalType": "address",
          "name": "",
          "type": "address"
        }
      ],
      "stateMutability": "view",
      "type": "function"
    },
    {
      "inputs": [],
      "name": "result",
      "outputs": [
        {
          "internalType": "enum Prediction.Side",
          "name": "winner",
          "type": "uint8"
        },
        {
          "internalType": "enum Prediction.Side",
          "name": "loser",
          "type": "uint8"
        }
      ],
      "stateMutability": "view",
      "type": "function"
    },
    {
      "inputs": [
        {
          "internalType": "enum Prediction.Side",
          "name": "_side",
          "type": "uint8"
        }
      ],
      "name": "placeBet",
      "outputs": [],
      "stateMutability": "payable",
      "type": "function"
    },
    {
      "inputs": [],
      "name": "withdrawGain",
      "outputs": [],
      "stateMutability": "nonpayable",
      "type": "function"
    },
    {
      "inputs": [
        {
          "internalType": "enum Prediction.Side",
          "name": "_winner",
          "type": "uint8"
        },
        {
          "internalType": "enum Prediction.Side",
          "name": "_loser",
          "type": "uint8"
        }
      ],
      "name": "reportResult",
      "outputs": [],
      "stateMutability": "nonpayable",
      "type": "function"
    }
  ],
  "bytecode": "0x608060405234801561001057600080fd5b50604051610a09380380610a098339818101604052602081101561003357600080fd5b810190808051906020019092919050505080600460006101000a81548173ffffffffffffffffffffffffffffffffffffffff021916908373ffffffffffffffffffffffffffffffffffffffff16021790555050610974806100956000396000f3fe60806040526004361061007b5760003560e01c80637dc0d1d01161004e5780637dc0d1d01461015b5780637e0ecc001461019c5780639d5a3739146101ee578063beab6e7e146102605761007b565b80632b539c861461008057806343046844146100975780634ec942b7146100c85780636537214714610113575b600080fd5b34801561008c57600080fd5b5061009561028d565b005b6100c6600480360360208110156100ad57600080fd5b81019080803560ff1690602001909291905050506105b1565b005b3480156100d457600080fd5b50610111600480360360408110156100eb57600080fd5b81019080803560ff169060200190929190803560ff1690602001909291905050506106e8565b005b34801561011f57600080fd5b5061012861089c565b6040518083600181111561013857fe5b815260200182600181111561014957fe5b81526020019250505060405180910390f35b34801561016757600080fd5b506101706108c8565b604051808273ffffffffffffffffffffffffffffffffffffffff16815260200191505060405180910390f35b3480156101a857600080fd5b506101d8600480360360208110156101bf57600080fd5b81019080803560ff1690602001909291905050506108ee565b6040518082815260200191505060405180910390f35b3480156101fa57600080fd5b5061024a6004803603604081101561021157600080fd5b81019080803573ffffffffffffffffffffffffffffffffffffffff169060200190929190803560ff169060200190929190505050610906565b6040518082815260200191505060405180910390f35b34801561026c57600080fd5b5061027561092b565b60405180821515815260200191505060405180910390f35b6000600360003373ffffffffffffffffffffffffffffffffffffffff1673ffffffffffffffffffffffffffffffffffffffff16815260200190815260200160002060008060000160009054906101000a900460ff1660018111156102ed57fe5b60018111156102f857fe5b81526020019081526020016000205490506000811161037f576040517f08c379a000000000000000000000000000000000000000000000000000000000815260040180806020018281038252601f8152602001807f796f7520646f206e6f74206861766520616e792077696e6e696e67206265740081525060200191505060405180910390fd5b60011515600160009054906101000a900460ff16151514610408576040517f08c379a00000000000000000000000000000000000000000000000000000000081526004018080602001828103825260158152602001807f656c656374696f6e206e6f742066696e6973686564000000000000000000000081525060200191505060405180910390fd5b6000600260008060000160009054906101000a900460ff16600181111561042b57fe5b600181111561043657fe5b81526020019081526020016000205482600260008060000160019054906101000a900460ff16600181111561046757fe5b600181111561047257fe5b815260200190815260200160002054028161048957fe5b04820190506000600360003373ffffffffffffffffffffffffffffffffffffffff1673ffffffffffffffffffffffffffffffffffffffff16815260200190815260200160002060006001808111156104dd57fe5b60018111156104e857fe5b8152602001908152602001600020819055506000600360003373ffffffffffffffffffffffffffffffffffffffff1673ffffffffffffffffffffffffffffffffffffffff168152602001908152602001600020600080600181111561054957fe5b600181111561055457fe5b8152602001908152602001600020819055503373ffffffffffffffffffffffffffffffffffffffff166108fc829081150290604051600060405180830381858888f193505050501580156105ac573d6000803e3d6000fd5b505050565b60001515600160009054906101000a900460ff1615151461063a576040517f08c379a00000000000000000000000000000000000000000000000000000000081526004018080602001828103825260148152602001807f656c656374696f6e2069732066696e697368656400000000000000000000000081525060200191505060405180910390fd5b346002600083600181111561064b57fe5b600181111561065657fe5b81526020019081526020016000206000828254019250508190555034600360003373ffffffffffffffffffffffffffffffffffffffff1673ffffffffffffffffffffffffffffffffffffffff16815260200190815260200160002060008360018111156106bf57fe5b60018111156106ca57fe5b81526020019081526020016000206000828254019250508190555050565b3373ffffffffffffffffffffffffffffffffffffffff16600460009054906101000a900473ffffffffffffffffffffffffffffffffffffffff1673ffffffffffffffffffffffffffffffffffffffff16146107ab576040517f08c379a000000000000000000000000000000000000000000000000000000000815260040180806020018281038252600b8152602001807f6f6e6c79206f7261636c6500000000000000000000000000000000000000000081525060200191505060405180910390fd5b60001515600160009054906101000a900460ff16151514610834576040517f08c379a00000000000000000000000000000000000000000000000000000000081526004018080602001828103825260148152602001807f656c656374696f6e2069732066696e697368656400000000000000000000000081525060200191505060405180910390fd5b816000800160006101000a81548160ff0219169083600181111561085457fe5b0217905550806000800160016101000a81548160ff0219169083600181111561087957fe5b021790555060018060006101000a81548160ff0219169083151502179055505050565b60008060000160009054906101000a900460ff16908060000160019054906101000a900460ff16905082565b600460009054906101000a900473ffffffffffffffffffffffffffffffffffffffff1681565b60026020528060005260406000206000915090505481565b6003602052816000526040600020602052806000526040600020600091509150505481565b600160009054906101000a900460ff168156fea26469706673582212205f68b3d465402bcb6fa2f955e5456a330d9940e0c2eeccb676592dcdc9242d8264736f6c63430007030033",
  "immutableReferences": {},
  "source": "pragma solidity ^0.7.3;\n\ncontract Prediction {\n    enum Side {\n        Yoon,\n        Lee\n    }\n    struct Result {\n        Side winner;\n        Side loser;\n    }\n    Result public result;\n    bool public electionFinished;\n\n    mapping(Side => uint256) public bets;\n    mapping(address => mapping(Side => uint256)) public betsPerGambler;\n    address public oracle;\n\n    constructor(address _oracle) {\n        oracle = _oracle;\n    }\n\n    function placeBet(Side _side) external payable {\n        require(electionFinished == false, \"election is finished\");\n        bets[_side] += msg.value;\n        betsPerGambler[msg.sender][_side] += msg.value;\n    }\n\n    function withdrawGain() external {\n        uint256 gamblerBet = betsPerGambler[msg.sender][result.winner];\n        require(gamblerBet > 0, \"you do not have any winning bet\");\n        require(electionFinished == true, \"election not finished\");\n        uint256 gain = gamblerBet +\n            (bets[result.loser] * gamblerBet) /\n            bets[result.winner];\n        betsPerGambler[msg.sender][Side.Lee] = 0;\n        betsPerGambler[msg.sender][Side.Yoon] = 0;\n        msg.sender.transfer(gain);\n    }\n\n    function reportResult(Side _winner, Side _loser) external {\n        require(oracle == msg.sender, \"only oracle\");\n        require(electionFinished == false, \"election is finished\");\n        result.winner = _winner;\n        result.loser = _loser;\n        electionFinished = true;\n    }\n}\n",
  "sourcePath": "/home/retepmil/undergradResearch/prediction_contract/contracts/Prediction.sol",
  "compiler": {
    "name": "solc",
    "version": "0.7.3+commit.9bfce1f6.Emscripten.clang"
  },
  "schemaVersion": "3.4.5",
  "updatedAt": "2022-02-20T09:59:40.190Z",
  "devdoc": {
    "kind": "dev",
    "methods": {},
    "version": 1
  },
  "userdoc": {
    "kind": "user",
    "methods": {},
    "version": 1
  }
}